{
  "contractName": "funder",
  "abi": [
    {
      "inputs": [],
      "name": "numOfFunders",
      "outputs": [
        {
          "internalType": "uint256",
          "name": "",
          "type": "uint256"
        }
      ],
      "stateMutability": "view",
      "type": "function",
      "constant": true
    },
    {
      "stateMutability": "payable",
      "type": "receive",
      "payable": true
    },
    {
      "inputs": [],
      "name": "transfer",
      "outputs": [],
      "stateMutability": "payable",
      "type": "function",
      "payable": true
    },
    {
      "inputs": [
        {
          "internalType": "uint256",
          "name": "withdrawamount",
          "type": "uint256"
        }
      ],
      "name": "withdraw",
      "outputs": [],
      "stateMutability": "nonpayable",
      "type": "function"
    }
  ],
  "bytecode": "0x608060405234801561001057600080fd5b506102d7806100206000396000f3fe6080604052600436106100385760003560e01c80632e1a7d4d146100445780638a4068dd1461006d578063af7f2c9b146100775761003f565b3661003f57005b600080fd5b34801561005057600080fd5b5061006b600480360381019061006691906101cd565b6100a2565b005b610075610137565b005b34801561008357600080fd5b5061008c61018c565b6040516100999190610209565b60405180910390f35b671bc16d674ec800008111156100ed576040517f08c379a00000000000000000000000000000000000000000000000000000000081526004016100e490610281565b60405180910390fd5b3373ffffffffffffffffffffffffffffffffffffffff166108fc829081150290604051600060405180830381858888f19350505050158015610133573d6000803e3d6000fd5b5050565b33600160008054815260200190815260200160002060006101000a81548173ffffffffffffffffffffffffffffffffffffffff021916908373ffffffffffffffffffffffffffffffffffffffff160217905550565b60005481565b600080fd5b6000819050919050565b6101aa81610197565b81146101b557600080fd5b50565b6000813590506101c7816101a1565b92915050565b6000602082840312156101e3576101e2610192565b5b60006101f1848285016101b8565b91505092915050565b61020381610197565b82525050565b600060208201905061021e60008301846101fa565b92915050565b600082825260208201905092915050565b7f63616e6e6f74207769746864726177206d6f7265207468616e20616d6f756e74600082015250565b600061026b602083610224565b915061027682610235565b602082019050919050565b6000602082019050818103600083015261029a8161025e565b905091905056fea2646970667358221220112a50e618840c5258772a7c1f4eeece50dec7df5a20d36430d7818613ed537d64736f6c634300080f0033",
  "immutableReferences": {},
  "source": "// SPDX-License-Identifier: MIT\npragma solidity >=0.4.22 <0.9.0;\ncontract funder{\n    uint public numOfFunders; //Total funders\n    mapping(uint => address) private funders;  //The address of each Number(funder)\n    receive() external payable{} //To receive ether into the contract\n\nfunction transfer() external payable{\n    funders[numOfFunders] = msg.sender; // Inital member will be msg.sender who will initiate the contract\n\n}\nfunction withdraw(uint withdrawamount)  external{\n     require(withdrawamount <= 2000000000000000000,\"cannot withdraw more than amount\"); // // wihtdrawal should be less than 2^18\n     payable(msg.sender).transfer(withdrawamount); // send the money back to the msg.sender \n}  \n\n}",
  "sourcePath": "/media/piyush/Study/Blockchain 3.0/Code Eater/FundingDAPP/contracts/funding.sol",
  "compiler": {
    "name": "solc",
    "version": "0.8.15+commit.e14f2714.Emscripten.clang"
  },
  "schemaVersion": "3.4.8",
  "updatedAt": "2022-07-15T18:20:29.740Z",
  "networkType": "ethereum",
  "devdoc": {
    "kind": "dev",
    "methods": {},
    "version": 1
  },
  "userdoc": {
    "kind": "user",
    "methods": {},
    "version": 1
  }
}